{
  "_format": "hh-sol-artifact-1",
  "contractName": "UniswapV3Staker",
  "sourceName": "contracts/UniswapV3Staker.sol",
  "abi": [
    {
      "inputs": [
        {
          "internalType": "contract IUniswapV3Factory",
          "name": "_factory",
          "type": "address"
        },
        {
          "internalType": "contract INonfungiblePositionManager",
          "name": "_nonfungiblePositionManager",
          "type": "address"
        },
        {
          "internalType": "uint256",
          "name": "_maxIncentiveStartLeadTime",
          "type": "uint256"
        },
        {
          "internalType": "uint256",
          "name": "_maxIncentiveDuration",
          "type": "uint256"
        }
      ],
      "stateMutability": "nonpayable",
      "type": "constructor"
    },
    {
      "anonymous": false,
      "inputs": [
        {
          "indexed": true,
          "internalType": "uint256",
          "name": "tokenId",
          "type": "uint256"
        },
        {
          "indexed": true,
          "internalType": "address",
          "name": "oldOwner",
          "type": "address"
        },
        {
          "indexed": true,
          "internalType": "address",
          "name": "newOwner",
          "type": "address"
        }
      ],
      "name": "DepositTransferred",
      "type": "event"
    },
    {
      "anonymous": false,
      "inputs": [
        {
          "indexed": true,
          "internalType": "contract IERC20Minimal",
          "name": "rewardToken",
          "type": "address"
        },
        {
          "indexed": true,
          "internalType": "contract IUniswapV3Pool",
          "name": "pool",
          "type": "address"
        },
        {
          "indexed": false,
          "internalType": "uint256",
          "name": "startTime",
          "type": "uint256"
        },
        {
          "indexed": false,
          "internalType": "uint256",
          "name": "endTime",
          "type": "uint256"
        },
        {
          "indexed": false,
          "internalType": "address",
          "name": "refundee",
          "type": "address"
        },
        {
          "indexed": false,
          "internalType": "uint256",
          "name": "reward",
          "type": "uint256"
        }
      ],
      "name": "IncentiveCreated",
      "type": "event"
    },
    {
      "anonymous": false,
      "inputs": [
        {
          "indexed": true,
          "internalType": "bytes32",
          "name": "incentiveId",
          "type": "bytes32"
        },
        {
          "indexed": false,
          "internalType": "uint256",
          "name": "refund",
          "type": "uint256"
        }
      ],
      "name": "IncentiveEnded",
      "type": "event"
    },
    {
      "anonymous": false,
      "inputs": [
        {
          "indexed": true,
          "internalType": "address",
          "name": "to",
          "type": "address"
        },
        {
          "indexed": false,
          "internalType": "uint256",
          "name": "reward",
          "type": "uint256"
        }
      ],
      "name": "RewardClaimed",
      "type": "event"
    },
    {
      "anonymous": false,
      "inputs": [
        {
          "indexed": true,
          "internalType": "uint256",
          "name": "tokenId",
          "type": "uint256"
        },
        {
          "indexed": true,
          "internalType": "bytes32",
          "name": "incentiveId",
          "type": "bytes32"
        },
        {
          "indexed": false,
          "internalType": "uint128",
          "name": "liquidity",
          "type": "uint128"
        }
      ],
      "name": "TokenStaked",
      "type": "event"
    },
    {
      "anonymous": false,
      "inputs": [
        {
          "indexed": true,
          "internalType": "uint256",
          "name": "tokenId",
          "type": "uint256"
        },
        {
          "indexed": true,
          "internalType": "bytes32",
          "name": "incentiveId",
          "type": "bytes32"
        }
      ],
      "name": "TokenUnstaked",
      "type": "event"
    },
    {
      "inputs": [
        {
          "internalType": "contract IERC20Minimal",
          "name": "rewardToken",
          "type": "address"
        },
        {
          "internalType": "address",
          "name": "to",
          "type": "address"
        },
        {
          "internalType": "uint256",
          "name": "amountRequested",
          "type": "uint256"
        }
      ],
      "name": "claimReward",
      "outputs": [
        {
          "internalType": "uint256",
          "name": "reward",
          "type": "uint256"
        }
      ],
      "stateMutability": "nonpayable",
      "type": "function"
    },
    {
      "inputs": [
        {
          "components": [
            {
              "internalType": "contract IERC20Minimal",
              "name": "rewardToken",
              "type": "address"
            },
            {
              "internalType": "contract IUniswapV3Pool",
              "name": "pool",
              "type": "address"
            },
            {
              "internalType": "uint256",
              "name": "startTime",
              "type": "uint256"
            },
            {
              "internalType": "uint256",
              "name": "endTime",
              "type": "uint256"
            },
            {
              "internalType": "address",
              "name": "refundee",
              "type": "address"
            }
          ],
          "internalType": "struct IUniswapV3Staker.IncentiveKey",
          "name": "key",
          "type": "tuple"
        },
        {
          "internalType": "uint256",
          "name": "reward",
          "type": "uint256"
        }
      ],
      "name": "createIncentive",
      "outputs": [],
      "stateMutability": "nonpayable",
      "type": "function"
    },
    {
      "inputs": [
        {
          "internalType": "uint256",
          "name": "",
          "type": "uint256"
        }
      ],
      "name": "deposits",
      "outputs": [
        {
          "internalType": "address",
          "name": "owner",
          "type": "address"
        },
        {
          "internalType": "uint48",
          "name": "numberOfStakes",
          "type": "uint48"
        },
        {
          "internalType": "int24",
          "name": "tickLower",
          "type": "int24"
        },
        {
          "internalType": "int24",
          "name": "tickUpper",
          "type": "int24"
        }
      ],
      "stateMutability": "view",
      "type": "function"
    },
    {
      "inputs": [
        {
          "components": [
            {
              "internalType": "contract IERC20Minimal",
              "name": "rewardToken",
              "type": "address"
            },
            {
              "internalType": "contract IUniswapV3Pool",
              "name": "pool",
              "type": "address"
            },
            {
              "internalType": "uint256",
              "name": "startTime",
              "type": "uint256"
            },
            {
              "internalType": "uint256",
              "name": "endTime",
              "type": "uint256"
            },
            {
              "internalType": "address",
              "name": "refundee",
              "type": "address"
            }
          ],
          "internalType": "struct IUniswapV3Staker.IncentiveKey",
          "name": "key",
          "type": "tuple"
        }
      ],
      "name": "endIncentive",
      "outputs": [
        {
          "internalType": "uint256",
          "name": "refund",
          "type": "uint256"
        }
      ],
      "stateMutability": "nonpayable",
      "type": "function"
    },
    {
      "inputs": [],
      "name": "factory",
      "outputs": [
        {
          "internalType": "contract IUniswapV3Factory",
          "name": "",
          "type": "address"
        }
      ],
      "stateMutability": "view",
      "type": "function"
    },
    {
      "inputs": [
        {
          "components": [
            {
              "internalType": "contract IERC20Minimal",
              "name": "rewardToken",
              "type": "address"
            },
            {
              "internalType": "contract IUniswapV3Pool",
              "name": "pool",
              "type": "address"
            },
            {
              "internalType": "uint256",
              "name": "startTime",
              "type": "uint256"
            },
            {
              "internalType": "uint256",
              "name": "endTime",
              "type": "uint256"
            },
            {
              "internalType": "address",
              "name": "refundee",
              "type": "address"
            }
          ],
          "internalType": "struct IUniswapV3Staker.IncentiveKey",
          "name": "key",
          "type": "tuple"
        },
        {
          "internalType": "uint256",
          "name": "tokenId",
          "type": "uint256"
        }
      ],
      "name": "getRewardInfo",
      "outputs": [
        {
          "internalType": "uint256",
          "name": "reward",
          "type": "uint256"
        },
        {
          "internalType": "uint160",
          "name": "secondsInsideX128",
          "type": "uint160"
        }
      ],
      "stateMutability": "view",
      "type": "function"
    },
    {
      "inputs": [
        {
          "internalType": "bytes32",
          "name": "",
          "type": "bytes32"
        }
      ],
      "name": "incentives",
      "outputs": [
        {
          "internalType": "uint256",
          "name": "totalRewardUnclaimed",
          "type": "uint256"
        },
        {
          "internalType": "uint160",
          "name": "totalSecondsClaimedX128",
          "type": "uint160"
        },
        {
          "internalType": "uint96",
          "name": "numberOfStakes",
          "type": "uint96"
        }
      ],
      "stateMutability": "view",
      "type": "function"
    },
    {
      "inputs": [],
      "name": "maxIncentiveDuration",
      "outputs": [
        {
          "internalType": "uint256",
          "name": "",
          "type": "uint256"
        }
      ],
      "stateMutability": "view",
      "type": "function"
    },
    {
      "inputs": [],
      "name": "maxIncentiveStartLeadTime",
      "outputs": [
        {
          "internalType": "uint256",
          "name": "",
          "type": "uint256"
        }
      ],
      "stateMutability": "view",
      "type": "function"
    },
    {
      "inputs": [
        {
          "internalType": "bytes[]",
          "name": "data",
          "type": "bytes[]"
        }
      ],
      "name": "multicall",
      "outputs": [
        {
          "internalType": "bytes[]",
          "name": "results",
          "type": "bytes[]"
        }
      ],
      "stateMutability": "payable",
      "type": "function"
    },
    {
      "inputs": [],
      "name": "nonfungiblePositionManager",
      "outputs": [
        {
          "internalType": "contract INonfungiblePositionManager",
          "name": "",
          "type": "address"
        }
      ],
      "stateMutability": "view",
      "type": "function"
    },
    {
      "inputs": [
        {
          "internalType": "address",
          "name": "",
          "type": "address"
        },
        {
          "internalType": "address",
          "name": "from",
          "type": "address"
        },
        {
          "internalType": "uint256",
          "name": "tokenId",
          "type": "uint256"
        },
        {
          "internalType": "bytes",
          "name": "data",
          "type": "bytes"
        }
      ],
      "name": "onERC721Received",
      "outputs": [
        {
          "internalType": "bytes4",
          "name": "",
          "type": "bytes4"
        }
      ],
      "stateMutability": "nonpayable",
      "type": "function"
    },
    {
      "inputs": [
        {
          "internalType": "contract IERC20Minimal",
          "name": "",
          "type": "address"
        },
        {
          "internalType": "address",
          "name": "",
          "type": "address"
        }
      ],
      "name": "rewards",
      "outputs": [
        {
          "internalType": "uint256",
          "name": "",
          "type": "uint256"
        }
      ],
      "stateMutability": "view",
      "type": "function"
    },
    {
      "inputs": [
        {
          "components": [
            {
              "internalType": "contract IERC20Minimal",
              "name": "rewardToken",
              "type": "address"
            },
            {
              "internalType": "contract IUniswapV3Pool",
              "name": "pool",
              "type": "address"
            },
            {
              "internalType": "uint256",
              "name": "startTime",
              "type": "uint256"
            },
            {
              "internalType": "uint256",
              "name": "endTime",
              "type": "uint256"
            },
            {
              "internalType": "address",
              "name": "refundee",
              "type": "address"
            }
          ],
          "internalType": "struct IUniswapV3Staker.IncentiveKey",
          "name": "key",
          "type": "tuple"
        },
        {
          "internalType": "uint256",
          "name": "tokenId",
          "type": "uint256"
        }
      ],
      "name": "stakeToken",
      "outputs": [],
      "stateMutability": "nonpayable",
      "type": "function"
    },
    {
      "inputs": [
        {
          "internalType": "uint256",
          "name": "tokenId",
          "type": "uint256"
        },
        {
          "internalType": "bytes32",
          "name": "incentiveId",
          "type": "bytes32"
        }
      ],
      "name": "stakes",
      "outputs": [
        {
          "internalType": "uint160",
          "name": "secondsPerLiquidityInsideInitialX128",
          "type": "uint160"
        },
        {
          "internalType": "uint128",
          "name": "liquidity",
          "type": "uint128"
        }
      ],
      "stateMutability": "view",
      "type": "function"
    },
    {
      "inputs": [
        {
          "internalType": "uint256",
          "name": "tokenId",
          "type": "uint256"
        },
        {
          "internalType": "address",
          "name": "to",
          "type": "address"
        }
      ],
      "name": "transferDeposit",
      "outputs": [],
      "stateMutability": "nonpayable",
      "type": "function"
    },
    {
      "inputs": [
        {
          "components": [
            {
              "internalType": "contract IERC20Minimal",
              "name": "rewardToken",
              "type": "address"
            },
            {
              "internalType": "contract IUniswapV3Pool",
              "name": "pool",
              "type": "address"
            },
            {
              "internalType": "uint256",
              "name": "startTime",
              "type": "uint256"
            },
            {
              "internalType": "uint256",
              "name": "endTime",
              "type": "uint256"
            },
            {
              "internalType": "address",
              "name": "refundee",
              "type": "address"
            }
          ],
          "internalType": "struct IUniswapV3Staker.IncentiveKey",
          "name": "key",
          "type": "tuple"
        },
        {
          "internalType": "uint256",
          "name": "tokenId",
          "type": "uint256"
        }
      ],
      "name": "unstakeToken",
      "outputs": [],
      "stateMutability": "nonpayable",
      "type": "function"
    },
    {
      "inputs": [
        {
          "internalType": "uint256",
          "name": "tokenId",
          "type": "uint256"
        },
        {
          "internalType": "address",
          "name": "to",
          "type": "address"
        },
        {
          "internalType": "bytes",
          "name": "data",
          "type": "bytes"
        }
      ],
      "name": "withdrawToken",
      "outputs": [],
      "stateMutability": "nonpayable",
      "type": "function"
    }
  ],
  "bytecode": "0x6101006040523480156200001257600080fd5b5060405162003c9538038062003c9583398101604081905262000035916200005e565b6001600160601b0319606094851b81166080529290931b90911660a05260c05260e052620000c3565b6000806000806080858703121562000074578384fd5b84516200008181620000aa565b60208601519094506200009481620000aa565b6040860151606090960151949790965092505050565b6001600160a01b0381168114620000c057600080fd5b50565b60805160601c60a05160601c60c05160e051613b736200012260003980610b6d5280610caa5250806103b15280610c095250806103ed52806104525280610af852806110dc5280611b5c5250806112d35280611b3b5250613b736000f3fe6080604052600436106101295760003560e01c8063b02c43d0116100a5578063c45a015511610074578063e70b9e2711610059578063e70b9e271461034f578063f2d2909b1461036f578063f549ab421461038f57610129565b8063c45a01551461030c578063d953186e1461032157610129565b8063b02c43d01461026c578063b44a27221461029c578063b5ada6e4146102be578063c36c1ea5146102de57610129565b80633c423f0b116100fc5780635cc5e3d9116100e15780635cc5e3d9146101fd578063607777951461021d578063ac9650d81461024c57610129565b80633c423f0b146101c85780633dc0714b146101e857610129565b806301b754401461012e578063150b7a021461015957806326bfee04146101865780632f2d783d146101a8575b600080fd5b34801561013a57600080fd5b506101436103af565b60405161015091906139ab565b60405180910390f35b34801561016557600080fd5b50610179610174366004612831565b6103d3565b6040516101509190612ea6565b34801561019257600080fd5b506101a66101a1366004612b8e565b61071c565b005b3480156101b457600080fd5b506101436101c3366004612a38565b61084a565b3480156101d457600080fd5b506101a66101e3366004612bb2565b610928565b3480156101f457600080fd5b50610143610b6b565b34801561020957600080fd5b506101a6610218366004612b64565b610b8f565b34801561022957600080fd5b5061023d6102383660046129e8565b610e97565b604051610150939291906139d8565b61025f61025a3660046128cb565b610eee565b6040516101509190612e28565b34801561027857600080fd5b5061028c6102873660046129e8565b611048565b6040516101509493929190612de7565b3480156102a857600080fd5b506102b16110da565b6040516101509190612ed3565b3480156102ca57600080fd5b506101436102d9366004612b49565b6110fe565b3480156102ea57600080fd5b506102fe6102f9366004612c44565b61124c565b604051610150929190613973565b34801561031857600080fd5b506102b16112d1565b34801561032d57600080fd5b5061034161033c366004612b64565b6112f5565b6040516101509291906139b4565b34801561035b57600080fd5b5061014361036a366004612a00565b61151a565b34801561037b57600080fd5b506101a661038a366004612b64565b611537565b34801561039b57600080fd5b506101a66103aa366004612b64565b6115a2565b7f000000000000000000000000000000000000000000000000000000000000000081565b60003373ffffffffffffffffffffffffffffffffffffffff7f0000000000000000000000000000000000000000000000000000000000000000161461044d576040517f08c379a0000000000000000000000000000000000000000000000000000000008152600401610444906138a9565b60405180910390fd5b6000807f000000000000000000000000000000000000000000000000000000000000000073ffffffffffffffffffffffffffffffffffffffff166399fbab88876040518263ffffffff1660e01b81526004016104a991906139ab565b6101806040518083038186803b1580156104c257600080fd5b505afa1580156104d6573d6000803e3d6000fd5b505050506040513d601f19601f820116820180604052508101906104fa9190612c65565b505050505096509650505050505060405180608001604052808873ffffffffffffffffffffffffffffffffffffffff168152602001600065ffffffffffff1681526020018360020b81526020018260020b8152506001600088815260200190815260200160002060008201518160000160006101000a81548173ffffffffffffffffffffffffffffffffffffffff021916908373ffffffffffffffffffffffffffffffffffffffff16021790555060208201518160000160146101000a81548165ffffffffffff021916908365ffffffffffff160217905550604082015181600001601a6101000a81548162ffffff021916908360020b62ffffff160217905550606082015181600001601d6101000a81548162ffffff021916908360020b62ffffff1602179055509050508673ffffffffffffffffffffffffffffffffffffffff16600073ffffffffffffffffffffffffffffffffffffffff16877fcdfc765b85e1048bee3c6a0f9d1c91fc7c4631f5fe5745a55fc6843db5c3260f60405160405180910390a483156106ef5760a08414156106ab576106a66106a085870187612b49565b876119eb565b6106ef565b60006106b98587018761293a565b905060005b81518110156106ec576106e48282815181106106d657fe5b6020026020010151896119eb565b6001016106be565b50505b507f150b7a0200000000000000000000000000000000000000000000000000000000979650505050505050565b73ffffffffffffffffffffffffffffffffffffffff8116610769576040517f08c379a000000000000000000000000000000000000000000000000000000000815260040161044490613275565b60008281526001602052604090205473ffffffffffffffffffffffffffffffffffffffff163381146107c7576040517f08c379a000000000000000000000000000000000000000000000000000000000815260040161044490612f78565b60008381526001602052604080822080547fffffffffffffffffffffffff00000000000000000000000000000000000000001673ffffffffffffffffffffffffffffffffffffffff868116918217909255915191929084169186917fcdfc765b85e1048bee3c6a0f9d1c91fc7c4631f5fe5745a55fc6843db5c3260f91a4505050565b73ffffffffffffffffffffffffffffffffffffffff83166000908152600360209081526040808320338452909152902054811580159061088957508082105b156108915750805b73ffffffffffffffffffffffffffffffffffffffff841660009081526003602090815260408083203384529091529020805482900390556108d3848483611fc3565b8273ffffffffffffffffffffffffffffffffffffffff167f106f923f993c2149d49b4255ff723acafa1f2d94393f561d3eda32ae348f72418260405161091991906139ab565b60405180910390a29392505050565b6000838152600160209081526040918290208251608081018452905473ffffffffffffffffffffffffffffffffffffffff8116825265ffffffffffff740100000000000000000000000000000000000000008204169282018390527a0100000000000000000000000000000000000000000000000000008104600290810b810b810b948301949094527d0100000000000000000000000000000000000000000000000000000000009004830b830b90920b606083015215610a15576040517f08c379a000000000000000000000000000000000000000000000000000000000815260040161044490613138565b805173ffffffffffffffffffffffffffffffffffffffff163314610a65576040517f08c379a000000000000000000000000000000000000000000000000000000000815260040161044490613573565b6000848152600160205260408082208290558251905173ffffffffffffffffffffffffffffffffffffffff9091169086907fcdfc765b85e1048bee3c6a0f9d1c91fc7c4631f5fe5745a55fc6843db5c3260f908490a46040517fb88d4fde00000000000000000000000000000000000000000000000000000000815273ffffffffffffffffffffffffffffffffffffffff7f0000000000000000000000000000000000000000000000000000000000000000169063b88d4fde90610b33903090879089908890600401612d9e565b600060405180830381600087803b158015610b4d57600080fd5b505af1158015610b61573d6000803e3d6000fd5b5050505050505050565b7f000000000000000000000000000000000000000000000000000000000000000081565b60008111610bc9576040517f08c379a0000000000000000000000000000000000000000000000000000000008152600401610444906136b0565b8160400151421115610c07576040517f08c379a0000000000000000000000000000000000000000000000000000000008152600401610444906132d2565b7f0000000000000000000000000000000000000000000000000000000000000000428360400151031115610c67576040517f08c379a00000000000000000000000000000000000000000000000000000000081526004016104449061376a565b8160600151826040015110610ca8576040517f08c379a000000000000000000000000000000000000000000000000000000000815260040161044490613826565b7f000000000000000000000000000000000000000000000000000000000000000082604001518360600151031115610d0c576040517f08c379a0000000000000000000000000000000000000000000000000000000008152600401610444906137c8565b6000610d178361219f565b60008181526020819052604090205490915015610d60576040517f08c379a00000000000000000000000000000000000000000000000000000000081526004016104449061370d565b604080516060810182528381526000602080830182815283850183815286845291839052939091209151825591516001909101805492516bffffffffffffffffffffffff16740100000000000000000000000000000000000000000273ffffffffffffffffffffffffffffffffffffffff9283167fffffffffffffffffffffffff0000000000000000000000000000000000000000909416939093179091169190911790558251610e13903330856121d0565b826020015173ffffffffffffffffffffffffffffffffffffffff16836000015173ffffffffffffffffffffffffffffffffffffffff167fa876344e28d4b5191ad03bc0d43f740e3695827ab0faccac739930b915ef8b0285604001518660600151876080015187604051610e8a9493929190613a12565b60405180910390a3505050565b6000602081905290815260409020805460019091015473ffffffffffffffffffffffffffffffffffffffff8116907401000000000000000000000000000000000000000090046bffffffffffffffffffffffff1683565b60608167ffffffffffffffff81118015610f0757600080fd5b50604051908082528060200260200182016040528015610f3b57816020015b6060815260200190600190039081610f265790505b50905060005b828110156110415760008030868685818110610f5957fe5b9050602002810190610f6b9190613a43565b604051610f79929190612d8e565b600060405180830381855af49150503d8060008114610fb4576040519150601f19603f3d011682016040523d82523d6000602084013e610fb9565b606091505b50915091508161101f57604481511015610fd257600080fd5b60048101905080806020019051810190610fec9190612ad1565b6040517f08c379a00000000000000000000000000000000000000000000000000000000081526004016104449190612f08565b8084848151811061102c57fe5b60209081029190910101525050600101610f41565b5092915050565b60016020526000908152604090205473ffffffffffffffffffffffffffffffffffffffff81169065ffffffffffff74010000000000000000000000000000000000000000820416907a0100000000000000000000000000000000000000000000000000008104600290810b917d0100000000000000000000000000000000000000000000000000000000009004900b84565b7f000000000000000000000000000000000000000000000000000000000000000081565b6000816060015142101561113e576040517f08c379a000000000000000000000000000000000000000000000000000000000815260040161044490613058565b60006111498361219f565b60008181526020819052604090208054935090915082611195576040517f08c379a000000000000000000000000000000000000000000000000000000000815260040161044490612f1b565b60018101547401000000000000000000000000000000000000000090046bffffffffffffffffffffffff16156111f7576040517f08c379a0000000000000000000000000000000000000000000000000000000008152600401610444906135d0565b600081558351608085015161120d919085611fc3565b817f65124e6175aa9904f40735e87e2a37c76e87a609b855287bb4d1aba8257d97638460405161123d91906139ab565b60405180910390a25050919050565b60008281526002602090815260408083208484529091529020805473ffffffffffffffffffffffffffffffffffffffff8116916bffffffffffffffffffffffff740100000000000000000000000000000000000000009092048216918214156112c95760018101546fffffffffffffffffffffffffffffffff1691505b509250929050565b7f000000000000000000000000000000000000000000000000000000000000000081565b60008060006113038561219f565b9050600080611312868461124c565b915091506000816fffffffffffffffffffffffffffffffff1611611362576040517f08c379a000000000000000000000000000000000000000000000000000000000815260040161044490612ffb565b60008681526001602081815260408084208151608081018352905473ffffffffffffffffffffffffffffffffffffffff80821683527401000000000000000000000000000000000000000080830465ffffffffffff16848701527a0100000000000000000000000000000000000000000000000000008304600290810b810b810b8587019081527d010000000000000000000000000000000000000000000000000000000000909404810b810b900b60608086019182528c8a52898852868a2087519182018852805482529098015480841689890152919091046bffffffffffffffffffffffff1687860152948e01519151945193517fa38807f200000000000000000000000000000000000000000000000000000000815292969491169263a38807f292611495929190600401612ef4565b60606040518083038186803b1580156114ad57600080fd5b505afa1580156114c1573d6000803e3d6000fd5b505050506040513d601f19601f820116820180604052508101906114e59190612a78565b50915050611509826000015183602001518c604001518d60600151888a87426123b5565b909b909a5098505050505050505050565b600360209081526000928352604080842090915290825290205481565b60008181526001602052604090205473ffffffffffffffffffffffffffffffffffffffff163314611594576040517f08c379a000000000000000000000000000000000000000000000000000000000815260040161044490613653565b61159e82826119eb565b5050565b6000818152600160209081526040918290208251608081018452905473ffffffffffffffffffffffffffffffffffffffff8116825265ffffffffffff74010000000000000000000000000000000000000000820416928201929092527a0100000000000000000000000000000000000000000000000000008204600290810b810b810b938201939093527d010000000000000000000000000000000000000000000000000000000000909104820b820b90910b6060808301919091528301514210156116b857805173ffffffffffffffffffffffffffffffffffffffff1633146116b8576040517f08c379a000000000000000000000000000000000000000000000000000000000815260040161044490613410565b60006116c38461219f565b90506000806116d2858461124c565b91509150806fffffffffffffffffffffffffffffffff1660001415611723576040517f08c379a0000000000000000000000000000000000000000000000000000000008152600401610444906130db565b600083815260208181526040808320888452600180845282852080547fffffffffffffffffffffffffffffffffffffffffffffffffffffffffffffffff65ffffffffffff740100000000000000000000000000000000000000008084048216830190911681027fffffffffffff000000000000ffffffffffffffffffffffffffffffffffffffff9093169290921790925591830180546bffffffffffffffffffffffff848204811690930190921690920273ffffffffffffffffffffffffffffffffffffffff91821617909155928a01518883015160608a015193517fa38807f2000000000000000000000000000000000000000000000000000000008152929594919091169263a38807f29261183e929190600401612ef4565b60606040518083038186803b15801561185657600080fd5b505afa15801561186a573d6000803e3d6000fd5b505050506040513d601f19601f8201168201806040525081019061188e9190612a78565b508354600185015460408c015160608d01519395506000945084936118cf939273ffffffffffffffffffffffffffffffffffffffff169190898b89426123b5565b6001860180547fffffffffffffffffffffffff0000000000000000000000000000000000000000811673ffffffffffffffffffffffffffffffffffffffff9182168401821617909155865483900387558c51811660009081526003602090815260408083208e5190941683529281528282208054860190558d8252600281528282208c8352905290812090815591935091506bffffffffffffffffffffffff6fffffffffffffffffffffffffffffffff8716106119b1576001810180547fffffffffffffffffffffffffffffffff000000000000000000000000000000001690555b60405188908b907fe1ba67e807ae0efa0a9549f9520ddc15c27f0a4dae2bc045e800ca66a940778f90600090a35050505050505050505050565b8160400151421015611a29576040517f08c379a000000000000000000000000000000000000000000000000000000000815260040161044490613493565b81606001514210611a66576040517f08c379a000000000000000000000000000000000000000000000000000000000815260040161044490613218565b6000611a718361219f565b600081815260208190526040902054909150611ab9576040517f08c379a0000000000000000000000000000000000000000000000000000000008152600401610444906133b3565b60008281526002602090815260408083208484529091529020547401000000000000000000000000000000000000000090046bffffffffffffffffffffffff1615611b30576040517f08c379a0000000000000000000000000000000000000000000000000000000008152600401610444906131bb565b600080600080611b817f00000000000000000000000000000000000000000000000000000000000000007f000000000000000000000000000000000000000000000000000000000000000088612437565b9350935093509350866020015173ffffffffffffffffffffffffffffffffffffffff168473ffffffffffffffffffffffffffffffffffffffff1614611bf2576040517f08c379a0000000000000000000000000000000000000000000000000000000008152600401610444906134f0565b6000816fffffffffffffffffffffffffffffffff1611611c3e576040517f08c379a000000000000000000000000000000000000000000000000000000000815260040161044490613355565b6000868152600160208181526040808420805465ffffffffffff740100000000000000000000000000000000000000008083048216870190911681027fffffffffffff000000000000ffffffffffffffffffffffffffffffffffffffff9092169190911790915589855291849052808420830180546bffffffffffffffffffffffff848204811690950190941690920273ffffffffffffffffffffffffffffffffffffffff93841617909155517fa38807f20000000000000000000000000000000000000000000000000000000081529086169063a38807f290611d289087908790600401612ef4565b60606040518083038186803b158015611d4057600080fd5b505afa158015611d54573d6000803e3d6000fd5b505050506040513d601f19601f82011682018060405250810190611d789190612a78565b509150506bffffffffffffffffffffffff6fffffffffffffffffffffffffffffffff831610611e91576040805160608101825273ffffffffffffffffffffffffffffffffffffffff80841682526bffffffffffffffffffffffff60208084018281526fffffffffffffffffffffffffffffffff80891686880190815260008f8152600285528881208f82529094529690922094518554915190931674010000000000000000000000000000000000000000029284167fffffffffffffffffffffffff000000000000000000000000000000000000000090911617909216178255915160019091018054919092167fffffffffffffffffffffffffffffffff00000000000000000000000000000000909116179055611f80565b6040805160608101825273ffffffffffffffffffffffffffffffffffffffff80841682526bffffffffffffffffffffffff808616602080850191825260008587018181528e8252600283528782208e83529092529590952093518454915190921674010000000000000000000000000000000000000000029183167fffffffffffffffffffffffff0000000000000000000000000000000000000000909116179091161781559051600190910180546fffffffffffffffffffffffffffffffff929092167fffffffffffffffffffffffffffffffff000000000000000000000000000000009092169190911790555b85877f3fe90ccd0a34e28f2b4b7a1e8323415ed9dd595f4eec5dfd461d18c2df336dbd84604051611fb19190613956565b60405180910390a35050505050505050565b6040805173ffffffffffffffffffffffffffffffffffffffff8481166024830152604480830185905283518084039091018152606490920183526020820180517bffffffffffffffffffffffffffffffffffffffffffffffffffffffff167fa9059cbb000000000000000000000000000000000000000000000000000000001781529251825160009485949389169392918291908083835b6020831061209857805182527fffffffffffffffffffffffffffffffffffffffffffffffffffffffffffffffe0909201916020918201910161205b565b6001836020036101000a0380198251168184511680821785525050505050509050019150506000604051808303816000865af19150503d80600081146120fa576040519150601f19603f3d011682016040523d82523d6000602084013e6120ff565b606091505b509150915081801561212d57508051158061212d575080806020019051602081101561212a57600080fd5b50515b61219857604080517f08c379a000000000000000000000000000000000000000000000000000000000815260206004820152600260248201527f5354000000000000000000000000000000000000000000000000000000000000604482015290519081900360640190fd5b5050505050565b6000816040516020016121b29190613906565b6040516020818303038152906040528051906020012090505b919050565b6040805173ffffffffffffffffffffffffffffffffffffffff85811660248301528481166044830152606480830185905283518084039091018152608490920183526020820180517bffffffffffffffffffffffffffffffffffffffffffffffffffffffff167f23b872dd00000000000000000000000000000000000000000000000000000000178152925182516000948594938a169392918291908083835b602083106122ad57805182527fffffffffffffffffffffffffffffffffffffffffffffffffffffffffffffffe09092019160209182019101612270565b6001836020036101000a0380198251168184511680821785525050505050509050019150506000604051808303816000865af19150503d806000811461230f576040519150601f19603f3d011682016040523d82523d6000602084013e612314565b606091505b5091509150818015612342575080511580612342575080806020019051602081101561233f57600080fd5b50515b6123ad57604080517f08c379a000000000000000000000000000000000000000000000000000000000815260206004820152600360248201527f5354460000000000000000000000000000000000000000000000000000000000604482015290519081900360640190fd5b505050505050565b600080878310156123c257fe5b508383036fffffffffffffffffffffffffffffffff861602600073ffffffffffffffffffffffffffffffffffffffff8a1660808a6124008b88612540565b03901b0390506124278b8373ffffffffffffffffffffffffffffffffffffffff1683612559565b9250509850989650505050505050565b60008060008060008060008873ffffffffffffffffffffffffffffffffffffffff166399fbab88896040518263ffffffff1660e01b8152600401808281526020019150506101806040518083038186803b15801561249457600080fd5b505afa1580156124a8573d6000803e3d6000fd5b505050506040513d6101808110156124bf57600080fd5b50604080820151606080840151608085015160a086015160c087015160e0909701518651948501875273ffffffffffffffffffffffffffffffffffffffff80871686528416602086015262ffffff8316968501969096529b50949950929750909550909350909150612532908b90612626565b965050505093509350935093565b6000818310156125505781612552565b825b9392505050565b600080807fffffffffffffffffffffffffffffffffffffffffffffffffffffffffffffffff858709868602925082811090839003039050806125ad57600084116125a257600080fd5b508290049050612552565b8084116125b957600080fd5b6000848688096000868103871696879004966002600389028118808a02820302808a02820302808a02820302808a02820302808a02820302808a02909103029181900381900460010186841190950394909402919094039290920491909117919091029150509392505050565b6000816020015173ffffffffffffffffffffffffffffffffffffffff16826000015173ffffffffffffffffffffffffffffffffffffffff161061266857600080fd5b508051602080830151604093840151845173ffffffffffffffffffffffffffffffffffffffff94851681850152939091168385015262ffffff166060808401919091528351808403820181526080840185528051908301207fff0000000000000000000000000000000000000000000000000000000000000060a085015294901b7fffffffffffffffffffffffffffffffffffffffff0000000000000000000000001660a183015260b58201939093527fe34f199b19b2b4f47f68442619d555527d244f78a3297ea89325f843f87b8b5460d5808301919091528251808303909101815260f5909101909152805191012090565b80516121cb81613b41565b8051600281900b81146121cb57600080fd5b600060a0828403121561278a578081fd5b60405160a0810181811067ffffffffffffffff821117156127a757fe5b60405290508082356127b881613b41565b815260208301356127c881613b41565b80602083015250604083013560408201526060830135606082015260808301356127f181613b41565b6080919091015292915050565b80516fffffffffffffffffffffffffffffffff811681146121cb57600080fd5b805162ffffff811681146121cb57600080fd5b600080600080600060808688031215612848578081fd5b853561285381613b41565b9450602086013561286381613b41565b935060408601359250606086013567ffffffffffffffff80821115612886578283fd5b818801915088601f830112612899578283fd5b8135818111156128a7578384fd5b8960208285010111156128b8578384fd5b9699959850939650602001949392505050565b600080602083850312156128dd578182fd5b823567ffffffffffffffff808211156128f4578384fd5b818501915085601f830112612907578384fd5b813581811115612915578485fd5b8660208083028501011115612928578485fd5b60209290920196919550909350505050565b6000602080838503121561294c578182fd5b823567ffffffffffffffff80821115612963578384fd5b818501915085601f830112612976578384fd5b81358181111561298257fe5b61298f8485830201613aad565b818152848101925083850160a0808402860187018a10156129ae578788fd5b8795505b838610156129da576129c48a83612779565b85526001959095019493860193908101906129b2565b509098975050505050505050565b6000602082840312156129f9578081fd5b5035919050565b60008060408385031215612a12578182fd5b8235612a1d81613b41565b91506020830135612a2d81613b41565b809150509250929050565b600080600060608486031215612a4c578081fd5b8335612a5781613b41565b92506020840135612a6781613b41565b929592945050506040919091013590565b600080600060608486031215612a8c578081fd5b83518060060b8114612a9c578182fd5b6020850151909350612aad81613b41565b604085015190925063ffffffff81168114612ac6578182fd5b809150509250925092565b600060208284031215612ae2578081fd5b815167ffffffffffffffff811115612af8578182fd5b8201601f81018413612b08578182fd5b8051612b1b612b1682613ad1565b613aad565b818152856020838501011115612b2f578384fd5b612b40826020830160208601613b11565b95945050505050565b600060a08284031215612b5a578081fd5b6125528383612779565b60008060c08385031215612b76578182fd5b612b808484612779565b9460a0939093013593505050565b60008060408385031215612ba0578182fd5b823591506020830135612a2d81613b41565b600080600060608486031215612bc6578081fd5b833592506020840135612bd881613b41565b9150604084013567ffffffffffffffff811115612bf3578182fd5b8401601f81018613612c03578182fd5b8035612c11612b1682613ad1565b818152876020838501011115612c25578384fd5b8160208401602083013783602083830101528093505050509250925092565b60008060408385031215612c56578182fd5b50508035926020909101359150565b6000806000806000806000806000806000806101808d8f031215612c8757898afd5b8c516bffffffffffffffffffffffff81168114612ca2578a8bfd5b9b50612cb060208e0161275c565b9a50612cbe60408e0161275c565b9950612ccc60608e0161275c565b9850612cda60808e0161281e565b9750612ce860a08e01612767565b9650612cf660c08e01612767565b9550612d0460e08e016127fe565b94506101008d015193506101208d01519250612d236101408e016127fe565b9150612d326101608e016127fe565b90509295989b509295989b509295989b565b60008151808452612d5c816020860160208601613b11565b601f017fffffffffffffffffffffffffffffffffffffffffffffffffffffffffffffffe0169290920160200192915050565b6000828483379101908152919050565b600073ffffffffffffffffffffffffffffffffffffffff808716835280861660208401525083604083015260806060830152612ddd6080830184612d44565b9695505050505050565b73ffffffffffffffffffffffffffffffffffffffff94909416845265ffffffffffff929092166020840152600290810b60408401520b606082015260800190565b6000602080830181845280855180835260408601915060408482028701019250838701855b82811015612e99577fffffffffffffffffffffffffffffffffffffffffffffffffffffffffffffffc0888603018452612e87858351612d44565b94509285019290850190600101612e4d565b5092979650505050505050565b7fffffffff0000000000000000000000000000000000000000000000000000000091909116815260200190565b73ffffffffffffffffffffffffffffffffffffffff91909116815260200190565b600292830b8152910b602082015260400190565b6000602082526125526020830184612d44565b60208082526032908201527f556e697377617056335374616b65723a3a656e64496e63656e746976653a206e60408201527f6f20726566756e6420617661696c61626c650000000000000000000000000000606082015260800190565b60208082526045908201527f556e697377617056335374616b65723a3a7472616e736665724465706f73697460408201527f3a2063616e206f6e6c792062652063616c6c6564206279206465706f7369742060608201527f6f776e6572000000000000000000000000000000000000000000000000000000608082015260a00190565b60208082526034908201527f556e697377617056335374616b65723a3a676574526577617264496e666f3a2060408201527f7374616b6520646f6573206e6f74206578697374000000000000000000000000606082015260800190565b60208082526043908201527f556e697377617056335374616b65723a3a656e64496e63656e746976653a206360408201527f616e6e6f7420656e6420696e63656e74697665206265666f726520656e64207460608201527f696d650000000000000000000000000000000000000000000000000000000000608082015260a00190565b60208082526033908201527f556e697377617056335374616b65723a3a756e7374616b65546f6b656e3a207360408201527f74616b6520646f6573206e6f7420657869737400000000000000000000000000606082015260800190565b60208082526042908201527f556e697377617056335374616b65723a3a7769746864726177546f6b656e3a2060408201527f63616e6e6f7420776974686472617720746f6b656e207768696c65207374616b60608201527f6564000000000000000000000000000000000000000000000000000000000000608082015260a00190565b60208082526031908201527f556e697377617056335374616b65723a3a7374616b65546f6b656e3a20746f6b60408201527f656e20616c7265616479207374616b6564000000000000000000000000000000606082015260800190565b6020808252602c908201527f556e697377617056335374616b65723a3a7374616b65546f6b656e3a20696e6360408201527f656e7469766520656e6465640000000000000000000000000000000000000000606082015260800190565b6020808252603c908201527f556e697377617056335374616b65723a3a7472616e736665724465706f73697460408201527f3a20696e76616c6964207472616e7366657220726563697069656e7400000000606082015260800190565b60208082526049908201527f556e697377617056335374616b65723a3a637265617465496e63656e7469766560408201527f3a2073746172742074696d65206d757374206265206e6f77206f7220696e207460608201527f6865206675747572650000000000000000000000000000000000000000000000608082015260a00190565b602080825260409082018190527f556e697377617056335374616b65723a3a7374616b65546f6b656e3a2063616e908201527f6e6f74207374616b6520746f6b656e20776974682030206c6971756964697479606082015260800190565b60208082526033908201527f556e697377617056335374616b65723a3a7374616b65546f6b656e3a206e6f6e60408201527f2d6578697374656e7420696e63656e7469766500000000000000000000000000606082015260800190565b60208082526056908201527f556e697377617056335374616b65723a3a756e7374616b65546f6b656e3a206f60408201527f6e6c79206f776e65722063616e20776974686472617720746f6b656e2062656660608201527f6f726520696e63656e7469766520656e642074696d6500000000000000000000608082015260a00190565b60208082526032908201527f556e697377617056335374616b65723a3a7374616b65546f6b656e3a20696e6360408201527f656e74697665206e6f7420737461727465640000000000000000000000000000606082015260800190565b60208082526041908201527f556e697377617056335374616b65723a3a7374616b65546f6b656e3a20746f6b60408201527f656e20706f6f6c206973206e6f742074686520696e63656e7469766520706f6f60608201527f6c00000000000000000000000000000000000000000000000000000000000000608082015260a00190565b6020808252603d908201527f556e697377617056335374616b65723a3a7769746864726177546f6b656e3a2060408201527f6f6e6c79206f776e65722063616e20776974686472617720746f6b656e000000606082015260800190565b6020808252604d908201527f556e697377617056335374616b65723a3a656e64496e63656e746976653a206360408201527f616e6e6f7420656e6420696e63656e74697665207768696c65206465706f736960608201527f747320617265207374616b656400000000000000000000000000000000000000608082015260a00190565b60208082526037908201527f556e697377617056335374616b65723a3a7374616b65546f6b656e3a206f6e6c60408201527f79206f776e65722063616e207374616b6520746f6b656e000000000000000000606082015260800190565b60208082526039908201527f556e697377617056335374616b65723a3a637265617465496e63656e7469766560408201527f3a20726577617264206d75737420626520706f73697469766500000000000000606082015260800190565b6020808252603a908201527f556e697377617056335374616b65723a3a637265617465496e63656e7469766560408201527f3a20696e63656e7469766520616c726561647920657869737473000000000000606082015260800190565b602080825260409082018190527f556e697377617056335374616b65723a3a637265617465496e63656e74697665908201527f3a2073746172742074696d6520746f6f2066617220696e746f20667574757265606082015260800190565b602080825260409082018190527f556e697377617056335374616b65723a3a637265617465496e63656e74697665908201527f3a20696e63656e74697665206475726174696f6e20697320746f6f206c6f6e67606082015260800190565b60208082526044908201527f556e697377617056335374616b65723a3a637265617465496e63656e7469766560408201527f3a2073746172742074696d65206d757374206265206265666f726520656e642060608201527f74696d6500000000000000000000000000000000000000000000000000000000608082015260a00190565b60208082526032908201527f556e697377617056335374616b65723a3a6f6e4552433732315265636569766560408201527f643a206e6f74206120756e697633206e66740000000000000000000000000000606082015260800190565b815173ffffffffffffffffffffffffffffffffffffffff90811682526020808401518216908301526040808401519083015260608084015190830152608092830151169181019190915260a00190565b6fffffffffffffffffffffffffffffffff91909116815260200190565b73ffffffffffffffffffffffffffffffffffffffff9290921682526fffffffffffffffffffffffffffffffff16602082015260400190565b90815260200190565b91825273ffffffffffffffffffffffffffffffffffffffff16602082015260400190565b92835273ffffffffffffffffffffffffffffffffffffffff9190911660208301526bffffffffffffffffffffffff16604082015260600190565b938452602084019290925273ffffffffffffffffffffffffffffffffffffffff166040830152606082015260800190565b60008083357fffffffffffffffffffffffffffffffffffffffffffffffffffffffffffffffe1843603018112613a77578283fd5b83018035915067ffffffffffffffff821115613a91578283fd5b602001915036819003821315613aa657600080fd5b9250929050565b60405181810167ffffffffffffffff81118282101715613ac957fe5b604052919050565b600067ffffffffffffffff821115613ae557fe5b50601f017fffffffffffffffffffffffffffffffffffffffffffffffffffffffffffffffe01660200190565b60005b83811015613b2c578181015183820152602001613b14565b83811115613b3b576000848401525b50505050565b73ffffffffffffffffffffffffffffffffffffffff81168114613b6357600080fd5b5056fea164736f6c6343000706000a",
  "linkReferences": {},
  "deployedLinkReferences": {}
}